{
  "_format": "hh-sol-artifact-1",
  "contractName": "DulceNFT",
  "sourceName": "contracts/DulceNFT.sol",
  "abi": [
    {
      "inputs": [],
      "stateMutability": "nonpayable",
      "type": "constructor"
    },
    {
      "anonymous": false,
      "inputs": [
        {
          "indexed": true,
          "internalType": "address",
          "name": "owner",
          "type": "address"
        },
        {
          "indexed": true,
          "internalType": "address",
          "name": "approved",
          "type": "address"
        },
        {
          "indexed": true,
          "internalType": "uint256",
          "name": "tokenId",
          "type": "uint256"
        }
      ],
      "name": "Approval",
      "type": "event"
    },
    {
      "anonymous": false,
      "inputs": [
        {
          "indexed": true,
          "internalType": "address",
          "name": "owner",
          "type": "address"
        },
        {
          "indexed": true,
          "internalType": "address",
          "name": "operator",
          "type": "address"
        },
        {
          "indexed": false,
          "internalType": "bool",
          "name": "approved",
          "type": "bool"
        }
      ],
      "name": "ApprovalForAll",
      "type": "event"
    },
    {
      "anonymous": false,
      "inputs": [
        {
          "indexed": true,
          "internalType": "address",
          "name": "previousOwner",
          "type": "address"
        },
        {
          "indexed": true,
          "internalType": "address",
          "name": "newOwner",
          "type": "address"
        }
      ],
      "name": "OwnershipTransferred",
      "type": "event"
    },
    {
      "anonymous": false,
      "inputs": [
        {
          "indexed": true,
          "internalType": "address",
          "name": "from",
          "type": "address"
        },
        {
          "indexed": true,
          "internalType": "address",
          "name": "to",
          "type": "address"
        },
        {
          "indexed": true,
          "internalType": "uint256",
          "name": "tokenId",
          "type": "uint256"
        }
      ],
      "name": "Transfer",
      "type": "event"
    },
    {
      "inputs": [
        {
          "internalType": "address",
          "name": "to",
          "type": "address"
        },
        {
          "internalType": "uint256",
          "name": "tokenId",
          "type": "uint256"
        }
      ],
      "name": "approve",
      "outputs": [],
      "stateMutability": "nonpayable",
      "type": "function"
    },
    {
      "inputs": [
        {
          "internalType": "address",
          "name": "owner",
          "type": "address"
        }
      ],
      "name": "balanceOf",
      "outputs": [
        {
          "internalType": "uint256",
          "name": "",
          "type": "uint256"
        }
      ],
      "stateMutability": "view",
      "type": "function"
    },
    {
      "inputs": [],
      "name": "flipSaleIsActive",
      "outputs": [],
      "stateMutability": "nonpayable",
      "type": "function"
    },
    {
      "inputs": [
        {
          "internalType": "uint256",
          "name": "tokenId",
          "type": "uint256"
        }
      ],
      "name": "getApproved",
      "outputs": [
        {
          "internalType": "address",
          "name": "",
          "type": "address"
        }
      ],
      "stateMutability": "view",
      "type": "function"
    },
    {
      "inputs": [
        {
          "internalType": "address",
          "name": "owner",
          "type": "address"
        },
        {
          "internalType": "address",
          "name": "operator",
          "type": "address"
        }
      ],
      "name": "isApprovedForAll",
      "outputs": [
        {
          "internalType": "bool",
          "name": "",
          "type": "bool"
        }
      ],
      "stateMutability": "view",
      "type": "function"
    },
    {
      "inputs": [
        {
          "internalType": "address",
          "name": "recipient",
          "type": "address"
        },
        {
          "internalType": "string",
          "name": "tokenURI",
          "type": "string"
        }
      ],
      "name": "mintNFT",
      "outputs": [
        {
          "internalType": "uint256",
          "name": "",
          "type": "uint256"
        }
      ],
      "stateMutability": "nonpayable",
      "type": "function"
    },
    {
      "inputs": [],
      "name": "name",
      "outputs": [
        {
          "internalType": "string",
          "name": "",
          "type": "string"
        }
      ],
      "stateMutability": "view",
      "type": "function"
    },
    {
      "inputs": [],
      "name": "owner",
      "outputs": [
        {
          "internalType": "address",
          "name": "",
          "type": "address"
        }
      ],
      "stateMutability": "view",
      "type": "function"
    },
    {
      "inputs": [
        {
          "internalType": "uint256",
          "name": "tokenId",
          "type": "uint256"
        }
      ],
      "name": "ownerOf",
      "outputs": [
        {
          "internalType": "address",
          "name": "",
          "type": "address"
        }
      ],
      "stateMutability": "view",
      "type": "function"
    },
    {
      "inputs": [],
      "name": "renounceOwnership",
      "outputs": [],
      "stateMutability": "nonpayable",
      "type": "function"
    },
    {
      "inputs": [
        {
          "internalType": "address",
          "name": "from",
          "type": "address"
        },
        {
          "internalType": "address",
          "name": "to",
          "type": "address"
        },
        {
          "internalType": "uint256",
          "name": "tokenId",
          "type": "uint256"
        }
      ],
      "name": "safeTransferFrom",
      "outputs": [],
      "stateMutability": "nonpayable",
      "type": "function"
    },
    {
      "inputs": [
        {
          "internalType": "address",
          "name": "from",
          "type": "address"
        },
        {
          "internalType": "address",
          "name": "to",
          "type": "address"
        },
        {
          "internalType": "uint256",
          "name": "tokenId",
          "type": "uint256"
        },
        {
          "internalType": "bytes",
          "name": "data",
          "type": "bytes"
        }
      ],
      "name": "safeTransferFrom",
      "outputs": [],
      "stateMutability": "nonpayable",
      "type": "function"
    },
    {
      "inputs": [],
      "name": "saleIsActive",
      "outputs": [
        {
          "internalType": "bool",
          "name": "",
          "type": "bool"
        }
      ],
      "stateMutability": "view",
      "type": "function"
    },
    {
      "inputs": [
        {
          "internalType": "address",
          "name": "operator",
          "type": "address"
        },
        {
          "internalType": "bool",
          "name": "approved",
          "type": "bool"
        }
      ],
      "name": "setApprovalForAll",
      "outputs": [],
      "stateMutability": "nonpayable",
      "type": "function"
    },
    {
      "inputs": [
        {
          "internalType": "bytes4",
          "name": "interfaceId",
          "type": "bytes4"
        }
      ],
      "name": "supportsInterface",
      "outputs": [
        {
          "internalType": "bool",
          "name": "",
          "type": "bool"
        }
      ],
      "stateMutability": "view",
      "type": "function"
    },
    {
      "inputs": [],
      "name": "symbol",
      "outputs": [
        {
          "internalType": "string",
          "name": "",
          "type": "string"
        }
      ],
      "stateMutability": "view",
      "type": "function"
    },
    {
      "inputs": [
        {
          "internalType": "uint256",
          "name": "tokenId",
          "type": "uint256"
        }
      ],
      "name": "tokenURI",
      "outputs": [
        {
          "internalType": "string",
          "name": "",
          "type": "string"
        }
      ],
      "stateMutability": "view",
      "type": "function"
    },
    {
      "inputs": [
        {
          "internalType": "address",
          "name": "from",
          "type": "address"
        },
        {
          "internalType": "address",
          "name": "to",
          "type": "address"
        },
        {
          "internalType": "uint256",
          "name": "tokenId",
          "type": "uint256"
        }
      ],
      "name": "transferFrom",
      "outputs": [],
      "stateMutability": "nonpayable",
      "type": "function"
    },
    {
      "inputs": [
        {
          "internalType": "address",
          "name": "newOwner",
          "type": "address"
        }
      ],
      "name": "transferOwnership",
      "outputs": [],
      "stateMutability": "nonpayable",
      "type": "function"
    }
  ],
  "bytecode": "0x60806040526000600960006101000a81548160ff0219169083151502179055503480156200002c57600080fd5b506040518060400160405280600881526020017f44756c63654e46540000000000000000000000000000000000000000000000008152506040518060400160405280600581526020017f44554c43450000000000000000000000000000000000000000000000000000008152508160009080519060200190620000b1929190620001c1565b508060019080519060200190620000ca929190620001c1565b505050620000ed620000e1620000f360201b60201c565b620000fb60201b60201c565b620002d6565b600033905090565b6000600760009054906101000a900473ffffffffffffffffffffffffffffffffffffffff16905081600760006101000a81548173ffffffffffffffffffffffffffffffffffffffff021916908373ffffffffffffffffffffffffffffffffffffffff1602179055508173ffffffffffffffffffffffffffffffffffffffff168173ffffffffffffffffffffffffffffffffffffffff167f8be0079c531659141344cd1fd0a4f28419497f9722a3daafe3b4186f6b6457e060405160405180910390a35050565b828054620001cf9062000271565b90600052602060002090601f016020900481019282620001f357600085556200023f565b82601f106200020e57805160ff19168380011785556200023f565b828001600101855582156200023f579182015b828111156200023e57825182559160200191906001019062000221565b5b5090506200024e919062000252565b5090565b5b808211156200026d57600081600090555060010162000253565b5090565b600060028204905060018216806200028a57607f821691505b60208210811415620002a157620002a0620002a7565b5b50919050565b7f4e487b7100000000000000000000000000000000000000000000000000000000600052602260045260246000fd5b612fbf80620002e66000396000f3fe608060405234801561001057600080fd5b50600436106101215760003560e01c80638da5cb5b116100ad578063e985e9c511610071578063e985e9c514610306578063eacabe1414610336578063eb8d244414610366578063ed06f66b14610384578063f2fde38b1461038e57610121565b80638da5cb5b1461026257806395d89b4114610280578063a22cb4651461029e578063b88d4fde146102ba578063c87b56dd146102d657610121565b806323b872dd116100f457806323b872dd146101c057806342842e0e146101dc5780636352211e146101f857806370a0823114610228578063715018a61461025857610121565b806301ffc9a71461012657806306fdde0314610156578063081812fc14610174578063095ea7b3146101a4575b600080fd5b610140600480360381019061013b919061224a565b6103aa565b60405161014d919061262d565b60405180910390f35b61015e61048c565b60405161016b9190612648565b60405180910390f35b61018e6004803603810190610189919061229c565b61051e565b60405161019b91906125c6565b60405180910390f35b6101be60048036038101906101b9919061220e565b610564565b005b6101da60048036038101906101d591906120b4565b61067c565b005b6101f660048036038101906101f191906120b4565b6106dc565b005b610212600480360381019061020d919061229c565b6106fc565b60405161021f91906125c6565b60405180910390f35b610242600480360381019061023d919061204f565b610783565b60405161024f919061284a565b60405180910390f35b61026061083b565b005b61026a61084f565b60405161027791906125c6565b60405180910390f35b610288610879565b6040516102959190612648565b60405180910390f35b6102b860048036038101906102b3919061217e565b61090b565b005b6102d460048036038101906102cf9190612103565b610921565b005b6102f060048036038101906102eb919061229c565b610983565b6040516102fd9190612648565b60405180910390f35b610320600480360381019061031b9190612078565b610a96565b60405161032d919061262d565b60405180910390f35b610350600480360381019061034b91906121ba565b610b2a565b60405161035d919061284a565b60405180910390f35b61036e610bb1565b60405161037b919061262d565b60405180910390f35b61038c610bc4565b005b6103a860048036038101906103a3919061204f565b610be9565b005b60007f80ac58cd000000000000000000000000000000000000000000000000000000007bffffffffffffffffffffffffffffffffffffffffffffffffffffffff1916827bffffffffffffffffffffffffffffffffffffffffffffffffffffffff1916148061047557507f5b5e139f000000000000000000000000000000000000000000000000000000007bffffffffffffffffffffffffffffffffffffffffffffffffffffffff1916827bffffffffffffffffffffffffffffffffffffffffffffffffffffffff1916145b80610485575061048482610c6d565b5b9050919050565b60606000805461049b90612a6f565b80601f01602080910402602001604051908101604052809291908181526020018280546104c790612a6f565b80156105145780601f106104e957610100808354040283529160200191610514565b820191906000526020600020905b8154815290600101906020018083116104f757829003601f168201915b5050505050905090565b600061052982610cd7565b6004600083815260200190815260200160002060009054906101000a900473ffffffffffffffffffffffffffffffffffffffff169050919050565b600061056f826106fc565b90508073ffffffffffffffffffffffffffffffffffffffff168373ffffffffffffffffffffffffffffffffffffffff1614156105e0576040517f08c379a00000000000000000000000000000000000000000000000000000000081526004016105d79061280a565b60405180910390fd5b8073ffffffffffffffffffffffffffffffffffffffff166105ff610d22565b73ffffffffffffffffffffffffffffffffffffffff16148061062e575061062d81610628610d22565b610a96565b5b61066d576040517f08c379a00000000000000000000000000000000000000000000000000000000081526004016106649061282a565b60405180910390fd5b6106778383610d2a565b505050565b61068d610687610d22565b82610de3565b6106cc576040517f08c379a00000000000000000000000000000000000000000000000000000000081526004016106c39061266a565b60405180910390fd5b6106d7838383610e78565b505050565b6106f783838360405180602001604052806000815250610921565b505050565b60008061070883611172565b9050600073ffffffffffffffffffffffffffffffffffffffff168173ffffffffffffffffffffffffffffffffffffffff16141561077a576040517f08c379a0000000000000000000000000000000000000000000000000000000008152600401610771906127ea565b60405180910390fd5b80915050919050565b60008073ffffffffffffffffffffffffffffffffffffffff168273ffffffffffffffffffffffffffffffffffffffff1614156107f4576040517f08c379a00000000000000000000000000000000000000000000000000000000081526004016107eb9061274a565b60405180910390fd5b600360008373ffffffffffffffffffffffffffffffffffffffff1673ffffffffffffffffffffffffffffffffffffffff168152602001908152602001600020549050919050565b6108436111af565b61084d600061122d565b565b6000600760009054906101000a900473ffffffffffffffffffffffffffffffffffffffff16905090565b60606001805461088890612a6f565b80601f01602080910402602001604051908101604052809291908181526020018280546108b490612a6f565b80156109015780601f106108d657610100808354040283529160200191610901565b820191906000526020600020905b8154815290600101906020018083116108e457829003601f168201915b5050505050905090565b61091d610916610d22565b83836112f3565b5050565b61093261092c610d22565b83610de3565b610971576040517f08c379a00000000000000000000000000000000000000000000000000000000081526004016109689061266a565b60405180910390fd5b61097d84848484611460565b50505050565b606061098e82610cd7565b60006006600084815260200190815260200160002080546109ae90612a6f565b80601f01602080910402602001604051908101604052809291908181526020018280546109da90612a6f565b8015610a275780601f106109fc57610100808354040283529160200191610a27565b820191906000526020600020905b815481529060010190602001808311610a0a57829003601f168201915b505050505090506000610a386114bc565b9050600081511415610a4e578192505050610a91565b600082511115610a83578082604051602001610a6b9291906125a2565b60405160208183030381529060405292505050610a91565b610a8c846114d3565b925050505b919050565b6000600560008473ffffffffffffffffffffffffffffffffffffffff1673ffffffffffffffffffffffffffffffffffffffff16815260200190815260200160002060008373ffffffffffffffffffffffffffffffffffffffff1673ffffffffffffffffffffffffffffffffffffffff16815260200190815260200160002060009054906101000a900460ff16905092915050565b6000600960009054906101000a900460ff16610b7b576040517f08c379a0000000000000000000000000000000000000000000000000000000008152600401610b729061278a565b60405180910390fd5b610b85600861153b565b6000610b916008611551565b9050610b9d848261155f565b610ba7818461177d565b8091505092915050565b600960009054906101000a900460ff1681565b610bcc6111af565b6001600960006101000a81548160ff021916908315150217905550565b610bf16111af565b600073ffffffffffffffffffffffffffffffffffffffff168173ffffffffffffffffffffffffffffffffffffffff161415610c61576040517f08c379a0000000000000000000000000000000000000000000000000000000008152600401610c58906126aa565b60405180910390fd5b610c6a8161122d565b50565b60007f01ffc9a7000000000000000000000000000000000000000000000000000000007bffffffffffffffffffffffffffffffffffffffffffffffffffffffff1916827bffffffffffffffffffffffffffffffffffffffffffffffffffffffff1916149050919050565b610ce0816117f1565b610d1f576040517f08c379a0000000000000000000000000000000000000000000000000000000008152600401610d16906127ea565b60405180910390fd5b50565b600033905090565b816004600083815260200190815260200160002060006101000a81548173ffffffffffffffffffffffffffffffffffffffff021916908373ffffffffffffffffffffffffffffffffffffffff160217905550808273ffffffffffffffffffffffffffffffffffffffff16610d9d836106fc565b73ffffffffffffffffffffffffffffffffffffffff167f8c5be1e5ebec7d5bd14f71427d1e84f3dd0314c0f7b2291e5b200ac8c7c3b92560405160405180910390a45050565b600080610def836106fc565b90508073ffffffffffffffffffffffffffffffffffffffff168473ffffffffffffffffffffffffffffffffffffffff161480610e315750610e308185610a96565b5b80610e6f57508373ffffffffffffffffffffffffffffffffffffffff16610e578461051e565b73ffffffffffffffffffffffffffffffffffffffff16145b91505092915050565b8273ffffffffffffffffffffffffffffffffffffffff16610e98826106fc565b73ffffffffffffffffffffffffffffffffffffffff1614610eee576040517f08c379a0000000000000000000000000000000000000000000000000000000008152600401610ee5906126ca565b60405180910390fd5b600073ffffffffffffffffffffffffffffffffffffffff168273ffffffffffffffffffffffffffffffffffffffff161415610f5e576040517f08c379a0000000000000000000000000000000000000000000000000000000008152600401610f559061270a565b60405180910390fd5b610f6b8383836001611832565b8273ffffffffffffffffffffffffffffffffffffffff16610f8b826106fc565b73ffffffffffffffffffffffffffffffffffffffff1614610fe1576040517f08c379a0000000000000000000000000000000000000000000000000000000008152600401610fd8906126ca565b60405180910390fd5b6004600082815260200190815260200160002060006101000a81549073ffffffffffffffffffffffffffffffffffffffff02191690556001600360008573ffffffffffffffffffffffffffffffffffffffff1673ffffffffffffffffffffffffffffffffffffffff168152602001908152602001600020600082825403925050819055506001600360008473ffffffffffffffffffffffffffffffffffffffff1673ffffffffffffffffffffffffffffffffffffffff16815260200190815260200160002060008282540192505081905550816002600083815260200190815260200160002060006101000a81548173ffffffffffffffffffffffffffffffffffffffff021916908373ffffffffffffffffffffffffffffffffffffffff160217905550808273ffffffffffffffffffffffffffffffffffffffff168473ffffffffffffffffffffffffffffffffffffffff167fddf252ad1be2c89b69c2b068fc378daa952ba7f163c4a11628f55a4df523b3ef60405160405180910390a461116d8383836001611958565b505050565b60006002600083815260200190815260200160002060009054906101000a900473ffffffffffffffffffffffffffffffffffffffff169050919050565b6111b7610d22565b73ffffffffffffffffffffffffffffffffffffffff166111d561084f565b73ffffffffffffffffffffffffffffffffffffffff161461122b576040517f08c379a0000000000000000000000000000000000000000000000000000000008152600401611222906127ca565b60405180910390fd5b565b6000600760009054906101000a900473ffffffffffffffffffffffffffffffffffffffff16905081600760006101000a81548173ffffffffffffffffffffffffffffffffffffffff021916908373ffffffffffffffffffffffffffffffffffffffff1602179055508173ffffffffffffffffffffffffffffffffffffffff168173ffffffffffffffffffffffffffffffffffffffff167f8be0079c531659141344cd1fd0a4f28419497f9722a3daafe3b4186f6b6457e060405160405180910390a35050565b8173ffffffffffffffffffffffffffffffffffffffff168373ffffffffffffffffffffffffffffffffffffffff161415611362576040517f08c379a00000000000000000000000000000000000000000000000000000000081526004016113599061272a565b60405180910390fd5b80600560008573ffffffffffffffffffffffffffffffffffffffff1673ffffffffffffffffffffffffffffffffffffffff16815260200190815260200160002060008473ffffffffffffffffffffffffffffffffffffffff1673ffffffffffffffffffffffffffffffffffffffff16815260200190815260200160002060006101000a81548160ff0219169083151502179055508173ffffffffffffffffffffffffffffffffffffffff168373ffffffffffffffffffffffffffffffffffffffff167f17307eab39ab6107e8899845ad3d59bd9653f200f220920489ca2b5937696c3183604051611453919061262d565b60405180910390a3505050565b61146b848484610e78565b6114778484848461195e565b6114b6576040517f08c379a00000000000000000000000000000000000000000000000000000000081526004016114ad9061268a565b60405180910390fd5b50505050565b606060405180602001604052806000815250905090565b60606114de82610cd7565b60006114e86114bc565b905060008151116115085760405180602001604052806000815250611533565b8061151284611af5565b6040516020016115239291906125a2565b6040516020818303038152906040525b915050919050565b6001816000016000828254019250508190555050565b600081600001549050919050565b600073ffffffffffffffffffffffffffffffffffffffff168273ffffffffffffffffffffffffffffffffffffffff1614156115cf576040517f08c379a00000000000000000000000000000000000000000000000000000000081526004016115c6906127aa565b60405180910390fd5b6115d8816117f1565b15611618576040517f08c379a000000000000000000000000000000000000000000000000000000000815260040161160f906126ea565b60405180910390fd5b611626600083836001611832565b61162f816117f1565b1561166f576040517f08c379a0000000000000000000000000000000000000000000000000000000008152600401611666906126ea565b60405180910390fd5b6001600360008473ffffffffffffffffffffffffffffffffffffffff1673ffffffffffffffffffffffffffffffffffffffff16815260200190815260200160002060008282540192505081905550816002600083815260200190815260200160002060006101000a81548173ffffffffffffffffffffffffffffffffffffffff021916908373ffffffffffffffffffffffffffffffffffffffff160217905550808273ffffffffffffffffffffffffffffffffffffffff16600073ffffffffffffffffffffffffffffffffffffffff167fddf252ad1be2c89b69c2b068fc378daa952ba7f163c4a11628f55a4df523b3ef60405160405180910390a4611779600083836001611958565b5050565b611786826117f1565b6117c5576040517f08c379a00000000000000000000000000000000000000000000000000000000081526004016117bc9061276a565b60405180910390fd5b806006600084815260200190815260200160002090805190602001906117ec929190611e73565b505050565b60008073ffffffffffffffffffffffffffffffffffffffff1661181383611172565b73ffffffffffffffffffffffffffffffffffffffff1614159050919050565b600181111561195257600073ffffffffffffffffffffffffffffffffffffffff168473ffffffffffffffffffffffffffffffffffffffff16146118c65780600360008673ffffffffffffffffffffffffffffffffffffffff1673ffffffffffffffffffffffffffffffffffffffff16815260200190815260200160002060008282546118be9190612985565b925050819055505b600073ffffffffffffffffffffffffffffffffffffffff168373ffffffffffffffffffffffffffffffffffffffff16146119515780600360008573ffffffffffffffffffffffffffffffffffffffff1673ffffffffffffffffffffffffffffffffffffffff1681526020019081526020016000206000828254611949919061292f565b925050819055505b5b50505050565b50505050565b600061197f8473ffffffffffffffffffffffffffffffffffffffff16611c19565b15611ae8578373ffffffffffffffffffffffffffffffffffffffff1663150b7a026119a8610d22565b8786866040518563ffffffff1660e01b81526004016119ca94939291906125e1565b602060405180830381600087803b1580156119e457600080fd5b505af1925050508015611a1557506040513d601f19601f82011682018060405250810190611a129190612273565b60015b611a98573d8060008114611a45576040519150601f19603f3d011682016040523d82523d6000602084013e611a4a565b606091505b50600081511415611a90576040517f08c379a0000000000000000000000000000000000000000000000000000000008152600401611a879061268a565b60405180910390fd5b805181602001fd5b63150b7a0260e01b7bffffffffffffffffffffffffffffffffffffffffffffffffffffffff1916817bffffffffffffffffffffffffffffffffffffffffffffffffffffffff191614915050611aed565b600190505b949350505050565b606060006001611b0484611c3c565b01905060008167ffffffffffffffff811115611b49577f4e487b7100000000000000000000000000000000000000000000000000000000600052604160045260246000fd5b6040519080825280601f01601f191660200182016040528015611b7b5781602001600182028036833780820191505090505b509050600082602001820190505b600115611c0e578080600190039150507f3031323334353637383961626364656600000000000000000000000000000000600a86061a8153600a8581611bf8577f4e487b7100000000000000000000000000000000000000000000000000000000600052601260045260246000fd5b0494506000851415611c0957611c0e565b611b89565b819350505050919050565b6000808273ffffffffffffffffffffffffffffffffffffffff163b119050919050565b600080600090507a184f03e93ff9f4daa797ed6e38ed64bf6a1f0100000000000000008310611cc0577a184f03e93ff9f4daa797ed6e38ed64bf6a1f0100000000000000008381611cb6577f4e487b7100000000000000000000000000000000000000000000000000000000600052601260045260246000fd5b0492506040810190505b6d04ee2d6d415b85acef81000000008310611d23576d04ee2d6d415b85acef81000000008381611d19577f4e487b7100000000000000000000000000000000000000000000000000000000600052601260045260246000fd5b0492506020810190505b662386f26fc100008310611d7857662386f26fc100008381611d6e577f4e487b7100000000000000000000000000000000000000000000000000000000600052601260045260246000fd5b0492506010810190505b6305f5e1008310611dc7576305f5e1008381611dbd577f4e487b7100000000000000000000000000000000000000000000000000000000600052601260045260246000fd5b0492506008810190505b6127108310611e12576127108381611e08577f4e487b7100000000000000000000000000000000000000000000000000000000600052601260045260246000fd5b0492506004810190505b60648310611e5b5760648381611e51577f4e487b7100000000000000000000000000000000000000000000000000000000600052601260045260246000fd5b0492506002810190505b600a8310611e6a576001810190505b80915050919050565b828054611e7f90612a6f565b90600052602060002090601f016020900481019282611ea15760008555611ee8565b82601f10611eba57805160ff1916838001178555611ee8565b82800160010185558215611ee8579182015b82811115611ee7578251825591602001919060010190611ecc565b5b509050611ef59190611ef9565b5090565b5b80821115611f12576000816000905550600101611efa565b5090565b6000611f29611f248461288a565b612865565b905082815260208101848484011115611f4157600080fd5b611f4c848285612a2d565b509392505050565b6000611f67611f62846128bb565b612865565b905082815260208101848484011115611f7f57600080fd5b611f8a848285612a2d565b509392505050565b600081359050611fa181612f2d565b92915050565b600081359050611fb681612f44565b92915050565b600081359050611fcb81612f5b565b92915050565b600081519050611fe081612f5b565b92915050565b600082601f830112611ff757600080fd5b8135612007848260208601611f16565b91505092915050565b600082601f83011261202157600080fd5b8135612031848260208601611f54565b91505092915050565b60008135905061204981612f72565b92915050565b60006020828403121561206157600080fd5b600061206f84828501611f92565b91505092915050565b6000806040838503121561208b57600080fd5b600061209985828601611f92565b92505060206120aa85828601611f92565b9150509250929050565b6000806000606084860312156120c957600080fd5b60006120d786828701611f92565b93505060206120e886828701611f92565b92505060406120f98682870161203a565b9150509250925092565b6000806000806080858703121561211957600080fd5b600061212787828801611f92565b945050602061213887828801611f92565b93505060406121498782880161203a565b925050606085013567ffffffffffffffff81111561216657600080fd5b61217287828801611fe6565b91505092959194509250565b6000806040838503121561219157600080fd5b600061219f85828601611f92565b92505060206121b085828601611fa7565b9150509250929050565b600080604083850312156121cd57600080fd5b60006121db85828601611f92565b925050602083013567ffffffffffffffff8111156121f857600080fd5b61220485828601612010565b9150509250929050565b6000806040838503121561222157600080fd5b600061222f85828601611f92565b92505060206122408582860161203a565b9150509250929050565b60006020828403121561225c57600080fd5b600061226a84828501611fbc565b91505092915050565b60006020828403121561228557600080fd5b600061229384828501611fd1565b91505092915050565b6000602082840312156122ae57600080fd5b60006122bc8482850161203a565b91505092915050565b6122ce816129b9565b82525050565b6122dd816129cb565b82525050565b60006122ee826128ec565b6122f88185612902565b9350612308818560208601612a3c565b61231181612b5f565b840191505092915050565b6000612327826128f7565b6123318185612913565b9350612341818560208601612a3c565b61234a81612b5f565b840191505092915050565b6000612360826128f7565b61236a8185612924565b935061237a818560208601612a3c565b80840191505092915050565b6000612393602d83612913565b915061239e82612b70565b604082019050919050565b60006123b6603283612913565b91506123c182612bbf565b604082019050919050565b60006123d9602683612913565b91506123e482612c0e565b604082019050919050565b60006123fc602583612913565b915061240782612c5d565b604082019050919050565b600061241f601c83612913565b915061242a82612cac565b602082019050919050565b6000612442602483612913565b915061244d82612cd5565b604082019050919050565b6000612465601983612913565b915061247082612d24565b602082019050919050565b6000612488602983612913565b915061249382612d4d565b604082019050919050565b60006124ab602e83612913565b91506124b682612d9c565b604082019050919050565b60006124ce601f83612913565b91506124d982612deb565b602082019050919050565b60006124f1602083612913565b91506124fc82612e14565b602082019050919050565b6000612514602083612913565b915061251f82612e3d565b602082019050919050565b6000612537601883612913565b915061254282612e66565b602082019050919050565b600061255a602183612913565b915061256582612e8f565b604082019050919050565b600061257d603d83612913565b915061258882612ede565b604082019050919050565b61259c81612a23565b82525050565b60006125ae8285612355565b91506125ba8284612355565b91508190509392505050565b60006020820190506125db60008301846122c5565b92915050565b60006080820190506125f660008301876122c5565b61260360208301866122c5565b6126106040830185612593565b818103606083015261262281846122e3565b905095945050505050565b600060208201905061264260008301846122d4565b92915050565b60006020820190508181036000830152612662818461231c565b905092915050565b6000602082019050818103600083015261268381612386565b9050919050565b600060208201905081810360008301526126a3816123a9565b9050919050565b600060208201905081810360008301526126c3816123cc565b9050919050565b600060208201905081810360008301526126e3816123ef565b9050919050565b6000602082019050818103600083015261270381612412565b9050919050565b6000602082019050818103600083015261272381612435565b9050919050565b6000602082019050818103600083015261274381612458565b9050919050565b600060208201905081810360008301526127638161247b565b9050919050565b600060208201905081810360008301526127838161249e565b9050919050565b600060208201905081810360008301526127a3816124c1565b9050919050565b600060208201905081810360008301526127c3816124e4565b9050919050565b600060208201905081810360008301526127e381612507565b9050919050565b600060208201905081810360008301526128038161252a565b9050919050565b600060208201905081810360008301526128238161254d565b9050919050565b6000602082019050818103600083015261284381612570565b9050919050565b600060208201905061285f6000830184612593565b92915050565b600061286f612880565b905061287b8282612aa1565b919050565b6000604051905090565b600067ffffffffffffffff8211156128a5576128a4612b30565b5b6128ae82612b5f565b9050602081019050919050565b600067ffffffffffffffff8211156128d6576128d5612b30565b5b6128df82612b5f565b9050602081019050919050565b600081519050919050565b600081519050919050565b600082825260208201905092915050565b600082825260208201905092915050565b600081905092915050565b600061293a82612a23565b915061294583612a23565b9250827fffffffffffffffffffffffffffffffffffffffffffffffffffffffffffffffff0382111561297a57612979612ad2565b5b828201905092915050565b600061299082612a23565b915061299b83612a23565b9250828210156129ae576129ad612ad2565b5b828203905092915050565b60006129c482612a03565b9050919050565b60008115159050919050565b60007fffffffff0000000000000000000000000000000000000000000000000000000082169050919050565b600073ffffffffffffffffffffffffffffffffffffffff82169050919050565b6000819050919050565b82818337600083830152505050565b60005b83811015612a5a578082015181840152602081019050612a3f565b83811115612a69576000848401525b50505050565b60006002820490506001821680612a8757607f821691505b60208210811415612a9b57612a9a612b01565b5b50919050565b612aaa82612b5f565b810181811067ffffffffffffffff82111715612ac957612ac8612b30565b5b80604052505050565b7f4e487b7100000000000000000000000000000000000000000000000000000000600052601160045260246000fd5b7f4e487b7100000000000000000000000000000000000000000000000000000000600052602260045260246000fd5b7f4e487b7100000000000000000000000000000000000000000000000000000000600052604160045260246000fd5b6000601f19601f8301169050919050565b7f4552433732313a2063616c6c6572206973206e6f7420746f6b656e206f776e6560008201527f72206f7220617070726f76656400000000000000000000000000000000000000602082015250565b7f4552433732313a207472616e7366657220746f206e6f6e20455243373231526560008201527f63656976657220696d706c656d656e7465720000000000000000000000000000602082015250565b7f4f776e61626c653a206e6577206f776e657220697320746865207a65726f206160008201527f6464726573730000000000000000000000000000000000000000000000000000602082015250565b7f4552433732313a207472616e736665722066726f6d20696e636f72726563742060008201527f6f776e6572000000000000000000000000000000000000000000000000000000602082015250565b7f4552433732313a20746f6b656e20616c7265616479206d696e74656400000000600082015250565b7f4552433732313a207472616e7366657220746f20746865207a65726f2061646460008201527f7265737300000000000000000000000000000000000000000000000000000000602082015250565b7f4552433732313a20617070726f766520746f2063616c6c657200000000000000600082015250565b7f4552433732313a2061646472657373207a65726f206973206e6f74206120766160008201527f6c6964206f776e65720000000000000000000000000000000000000000000000602082015250565b7f45524337323155524953746f726167653a2055524920736574206f66206e6f6e60008201527f6578697374656e7420746f6b656e000000000000000000000000000000000000602082015250565b7f53616c65206d7573742062652061637469766520746f206d696e742041706500600082015250565b7f4552433732313a206d696e7420746f20746865207a65726f2061646472657373600082015250565b7f4f776e61626c653a2063616c6c6572206973206e6f7420746865206f776e6572600082015250565b7f4552433732313a20696e76616c696420746f6b656e2049440000000000000000600082015250565b7f4552433732313a20617070726f76616c20746f2063757272656e74206f776e6560008201527f7200000000000000000000000000000000000000000000000000000000000000602082015250565b7f4552433732313a20617070726f76652063616c6c6572206973206e6f7420746f60008201527f6b656e206f776e6572206f7220617070726f76656420666f7220616c6c000000602082015250565b612f36816129b9565b8114612f4157600080fd5b50565b612f4d816129cb565b8114612f5857600080fd5b50565b612f64816129d7565b8114612f6f57600080fd5b50565b612f7b81612a23565b8114612f8657600080fd5b5056fea264697066735822122068b5f237f5f47471063feaff47943bf26424ecf89e31fe4c3d5b2f183bc43b0164736f6c63430008010033",
  "linkReferences": {},
  "deployedLinkReferences": {}
}